{
  "contractName": "FoodSupplyChain",
  "abi": [
    {
      "inputs": [
        {
          "internalType": "address",
          "name": "",
          "type": "address"
        }
      ],
      "name": "farmers",
      "outputs": [
        {
          "internalType": "address",
          "name": "farmerAddress",
          "type": "address"
        },
        {
          "internalType": "string",
          "name": "name",
          "type": "string"
        }
      ],
      "stateMutability": "view",
      "type": "function"
    },
    {
      "inputs": [
        {
          "internalType": "uint256",
          "name": "",
          "type": "uint256"
        }
      ],
      "name": "foodData",
      "outputs": [
        {
          "internalType": "string",
          "name": "name",
          "type": "string"
        },
        {
          "internalType": "uint256",
          "name": "quantity",
          "type": "uint256"
        },
        {
          "internalType": "string",
          "name": "location",
          "type": "string"
        }
      ],
      "stateMutability": "view",
      "type": "function"
    },
    {
      "inputs": [
        {
          "internalType": "address",
          "name": "",
          "type": "address"
        }
      ],
      "name": "governmentEntities",
      "outputs": [
        {
          "internalType": "address",
          "name": "entityAddress",
          "type": "address"
        },
        {
          "internalType": "string",
          "name": "name",
          "type": "string"
        }
      ],
      "stateMutability": "view",
      "type": "function"
    },
    {
      "inputs": [
        {
          "internalType": "address",
          "name": "",
          "type": "address"
        }
      ],
      "name": "sales",
      "outputs": [
        {
          "internalType": "address",
          "name": "salesAddress",
          "type": "address"
        },
        {
          "internalType": "string",
          "name": "name",
          "type": "string"
        }
      ],
      "stateMutability": "view",
      "type": "function"
    },
    {
      "inputs": [
        {
          "internalType": "address",
          "name": "",
          "type": "address"
        }
      ],
      "name": "transporters",
      "outputs": [
        {
          "internalType": "address",
          "name": "transporterAddress",
          "type": "address"
        },
        {
          "internalType": "string",
          "name": "name",
          "type": "string"
        }
      ],
      "stateMutability": "view",
      "type": "function"
    },
    {
      "inputs": [
        {
          "internalType": "uint256",
          "name": "foodId",
          "type": "uint256"
        },
        {
          "components": [
            {
              "internalType": "string",
              "name": "name",
              "type": "string"
            },
            {
              "internalType": "uint256",
              "name": "quantity",
              "type": "uint256"
            },
            {
              "internalType": "string",
              "name": "location",
              "type": "string"
            }
          ],
          "internalType": "struct FoodSupplyChain.FoodData",
          "name": "data",
          "type": "tuple"
        }
      ],
      "name": "addFoodData",
      "outputs": [],
      "stateMutability": "nonpayable",
      "type": "function"
    },
    {
      "inputs": [
        {
          "internalType": "string",
          "name": "farmerName",
          "type": "string"
        }
      ],
      "name": "registerAsFarmer",
      "outputs": [],
      "stateMutability": "nonpayable",
      "type": "function"
    },
    {
      "inputs": [
        {
          "internalType": "string",
          "name": "transporterName",
          "type": "string"
        }
      ],
      "name": "registerAsTransporter",
      "outputs": [],
      "stateMutability": "nonpayable",
      "type": "function"
    },
    {
      "inputs": [
        {
          "internalType": "string",
          "name": "salesName",
          "type": "string"
        }
      ],
      "name": "registerAsSales",
      "outputs": [],
      "stateMutability": "nonpayable",
      "type": "function"
    },
    {
      "inputs": [
        {
          "internalType": "string",
          "name": "entityName",
          "type": "string"
        }
      ],
      "name": "registerAsGovernmentEntity",
      "outputs": [],
      "stateMutability": "nonpayable",
      "type": "function"
    }
  ],
  "bytecode": "0x608060405234801561001057600080fd5b506110e3806100206000396000f3fe608060405234801561001057600080fd5b506004361061009e5760003560e01c8063bd9eae8111610066578063bd9eae8114610144578063c6b9f06a14610176578063df619ad7146101a7578063e25bd158146101d8578063f46dfee6146102095761009e565b8063401b2168146100a357806366194cb8146100d4578063773c179c146100f05780639eb19c791461010c578063b4079e0a14610128575b600080fd5b6100bd60048036038101906100b89190610ba5565b610225565b6040516100cb929190610c7a565b60405180910390f35b6100ee60048036038101906100e99190610ddf565b6102f1565b005b61010a60048036038101906101059190610ddf565b6103c5565b005b61012660048036038101906101219190610ddf565b610499565b005b610142600480360381019061013d9190610f04565b61056d565b005b61015e60048036038101906101599190610f60565b610613565b60405161016d93929190610f9c565b60405180910390f35b610190600480360381019061018b9190610ba5565b61074d565b60405161019e929190610c7a565b60405180910390f35b6101c160048036038101906101bc9190610ba5565b610819565b6040516101cf929190610c7a565b60405180910390f35b6101f260048036038101906101ed9190610ba5565b6108e5565b604051610200929190610c7a565b60405180910390f35b610223600480360381019061021e9190610ddf565b6109b1565b005b60016020528060005260406000206000915090508060000160009054906101000a900473ffffffffffffffffffffffffffffffffffffffff169080600101805461026e90611010565b80601f016020809104026020016040519081016040528092919081815260200182805461029a90611010565b80156102e75780601f106102bc576101008083540402835291602001916102e7565b820191906000526020600020905b8154815290600101906020018083116102ca57829003601f168201915b5050505050905082565b60405180604001604052803373ffffffffffffffffffffffffffffffffffffffff16815260200182815250600260003373ffffffffffffffffffffffffffffffffffffffff1673ffffffffffffffffffffffffffffffffffffffff16815260200190815260200160002060008201518160000160006101000a81548173ffffffffffffffffffffffffffffffffffffffff021916908373ffffffffffffffffffffffffffffffffffffffff16021790555060208201518160010190805190602001906103be929190610a90565b5090505050565b60405180604001604052803373ffffffffffffffffffffffffffffffffffffffff16815260200182815250600460003373ffffffffffffffffffffffffffffffffffffffff1673ffffffffffffffffffffffffffffffffffffffff16815260200190815260200160002060008201518160000160006101000a81548173ffffffffffffffffffffffffffffffffffffffff021916908373ffffffffffffffffffffffffffffffffffffffff1602179055506020820151816001019080519060200190610492929190610a90565b5090505050565b60405180604001604052803373ffffffffffffffffffffffffffffffffffffffff16815260200182815250600160003373ffffffffffffffffffffffffffffffffffffffff1673ffffffffffffffffffffffffffffffffffffffff16815260200190815260200160002060008201518160000160006101000a81548173ffffffffffffffffffffffffffffffffffffffff021916908373ffffffffffffffffffffffffffffffffffffffff1602179055506020820151816001019080519060200190610566929190610a90565b5090505050565b61057681610a85565b6105b5576040517f08c379a00000000000000000000000000000000000000000000000000000000081526004016105ac9061108d565b60405180910390fd5b8060008084815260200190815260200160002060008201518160000190805190602001906105e4929190610a90565b5060208201518160010155604082015181600201908051906020019061060b929190610a90565b509050505050565b600060205280600052604060002060009150905080600001805461063690611010565b80601f016020809104026020016040519081016040528092919081815260200182805461066290611010565b80156106af5780601f10610684576101008083540402835291602001916106af565b820191906000526020600020905b81548152906001019060200180831161069257829003601f168201915b5050505050908060010154908060020180546106ca90611010565b80601f01602080910402602001604051908101604052809291908181526020018280546106f690611010565b80156107435780601f1061071857610100808354040283529160200191610743565b820191906000526020600020905b81548152906001019060200180831161072657829003601f168201915b5050505050905083565b60036020528060005260406000206000915090508060000160009054906101000a900473ffffffffffffffffffffffffffffffffffffffff169080600101805461079690611010565b80601f01602080910402602001604051908101604052809291908181526020018280546107c290611010565b801561080f5780601f106107e45761010080835404028352916020019161080f565b820191906000526020600020905b8154815290600101906020018083116107f257829003601f168201915b5050505050905082565b60046020528060005260406000206000915090508060000160009054906101000a900473ffffffffffffffffffffffffffffffffffffffff169080600101805461086290611010565b80601f016020809104026020016040519081016040528092919081815260200182805461088e90611010565b80156108db5780601f106108b0576101008083540402835291602001916108db565b820191906000526020600020905b8154815290600101906020018083116108be57829003601f168201915b5050505050905082565b60026020528060005260406000206000915090508060000160009054906101000a900473ffffffffffffffffffffffffffffffffffffffff169080600101805461092e90611010565b80601f016020809104026020016040519081016040528092919081815260200182805461095a90611010565b80156109a75780601f1061097c576101008083540402835291602001916109a7565b820191906000526020600020905b81548152906001019060200180831161098a57829003601f168201915b5050505050905082565b60405180604001604052803373ffffffffffffffffffffffffffffffffffffffff16815260200182815250600360003373ffffffffffffffffffffffffffffffffffffffff1673ffffffffffffffffffffffffffffffffffffffff16815260200190815260200160002060008201518160000160006101000a81548173ffffffffffffffffffffffffffffffffffffffff021916908373ffffffffffffffffffffffffffffffffffffffff1602179055506020820151816001019080519060200190610a7e929190610a90565b5090505050565b600060019050919050565b828054610a9c90611010565b90600052602060002090601f016020900481019282610abe5760008555610b05565b82601f10610ad757805160ff1916838001178555610b05565b82800160010185558215610b05579182015b82811115610b04578251825591602001919060010190610ae9565b5b509050610b129190610b16565b5090565b5b80821115610b2f576000816000905550600101610b17565b5090565b6000604051905090565b600080fd5b600080fd5b600073ffffffffffffffffffffffffffffffffffffffff82169050919050565b6000610b7282610b47565b9050919050565b610b8281610b67565b8114610b8d57600080fd5b50565b600081359050610b9f81610b79565b92915050565b600060208284031215610bbb57610bba610b3d565b5b6000610bc984828501610b90565b91505092915050565b610bdb81610b67565b82525050565b600081519050919050565b600082825260208201905092915050565b60005b83811015610c1b578082015181840152602081019050610c00565b83811115610c2a576000848401525b50505050565b6000601f19601f8301169050919050565b6000610c4c82610be1565b610c568185610bec565b9350610c66818560208601610bfd565b610c6f81610c30565b840191505092915050565b6000604082019050610c8f6000830185610bd2565b8181036020830152610ca18184610c41565b90509392505050565b600080fd5b600080fd5b7f4e487b7100000000000000000000000000000000000000000000000000000000600052604160045260246000fd5b610cec82610c30565b810181811067ffffffffffffffff82111715610d0b57610d0a610cb4565b5b80604052505050565b6000610d1e610b33565b9050610d2a8282610ce3565b919050565b600067ffffffffffffffff821115610d4a57610d49610cb4565b5b610d5382610c30565b9050602081019050919050565b82818337600083830152505050565b6000610d82610d7d84610d2f565b610d14565b905082815260208101848484011115610d9e57610d9d610caf565b5b610da9848285610d60565b509392505050565b600082601f830112610dc657610dc5610caa565b5b8135610dd6848260208601610d6f565b91505092915050565b600060208284031215610df557610df4610b3d565b5b600082013567ffffffffffffffff811115610e1357610e12610b42565b5b610e1f84828501610db1565b91505092915050565b6000819050919050565b610e3b81610e28565b8114610e4657600080fd5b50565b600081359050610e5881610e32565b92915050565b600080fd5b600080fd5b600060608284031215610e7e57610e7d610e5e565b5b610e886060610d14565b9050600082013567ffffffffffffffff811115610ea857610ea7610e63565b5b610eb484828501610db1565b6000830152506020610ec884828501610e49565b602083015250604082013567ffffffffffffffff811115610eec57610eeb610e63565b5b610ef884828501610db1565b60408301525092915050565b60008060408385031215610f1b57610f1a610b3d565b5b6000610f2985828601610e49565b925050602083013567ffffffffffffffff811115610f4a57610f49610b42565b5b610f5685828601610e68565b9150509250929050565b600060208284031215610f7657610f75610b3d565b5b6000610f8484828501610e49565b91505092915050565b610f9681610e28565b82525050565b60006060820190508181036000830152610fb68186610c41565b9050610fc56020830185610f8d565b8181036040830152610fd78184610c41565b9050949350505050565b7f4e487b7100000000000000000000000000000000000000000000000000000000600052602260045260246000fd5b6000600282049050600182168061102857607f821691505b60208210810361103b5761103a610fe1565b5b50919050565b7f496e76616c696420666f6f642064617461000000000000000000000000000000600082015250565b6000611077601183610bec565b915061108282611041565b602082019050919050565b600060208201905081810360008301526110a68161106a565b905091905056fea2646970667358221220c473203f6d97ddd09ff2a25c82e8397e6900aa6d08d9d2ef62d7d177db19b29264736f6c634300080d0033",
  "immutableReferences": {},
  "source": "// SPDX-License-Identifier: MIT\npragma solidity ^0.8.0;\n\ncontract FoodSupplyChain {\n    // Structure to represent food data\n    struct FoodData {\n        string name;\n        uint256 quantity;\n        string location;\n        // Add more fields as needed\n    }\n\n    // Structure to represent farmer details\n    struct Farmer {\n        address farmerAddress;\n        string name;\n        // Add more fields as needed\n    }\n\n    // Structure to represent transporter details\n    struct Transporter {\n        address transporterAddress;\n        string name;\n        // Add more fields as needed\n    }\n\n    // Structure to represent sales details\n    struct Sales {\n        address salesAddress;\n        string name;\n        // Add more fields as needed\n    }\n\n    // Structure to represent government entity details\n    struct GovernmentEntity {\n        address entityAddress;\n        string name;\n        // Add more fields as needed\n    }\n\n    // Mapping to store food data\n    mapping(uint256 => FoodData) public foodData;\n\n    // Mapping to store entity details\n    mapping(address => Farmer) public farmers;\n    mapping(address => Transporter) public transporters;\n    mapping(address => Sales) public sales;\n    mapping(address => GovernmentEntity) public governmentEntities;\n\n    // Function to add food data\n    function addFoodData(uint256 foodId, FoodData memory data) public {\n        // Validate food data\n        require(validateFoodData(data), \"Invalid food data\");\n\n        // Store food data\n        foodData[foodId] = data;\n    }\n\n    // Function to register as a farmer\n    function registerAsFarmer(string memory farmerName) public {\n        // Register farmer\n        farmers[msg.sender] = Farmer(msg.sender, farmerName);\n    }\n\n    // Function to register as a transporter\n    function registerAsTransporter(string memory transporterName) public {\n        // Register transporter\n        transporters[msg.sender] = Transporter(msg.sender, transporterName);\n    }\n\n    // Function to register as sales\n    function registerAsSales(string memory salesName) public {\n        // Register sales\n        sales[msg.sender] = Sales(msg.sender, salesName);\n    }\n\n    // Function to register as a government entity\n    function registerAsGovernmentEntity(string memory entityName) public {\n        // Register government entity\n        governmentEntities[msg.sender] = GovernmentEntity(msg.sender, entityName);\n    }\n\n    // Function to validate food data\n    function validateFoodData(FoodData memory food) internal pure returns (bool) {\n        // Implement validation rules\n        // Example: Check if the quantity is greater than zero\n\n        return true; // Placeholder, replace with actual validation logic\n    }\n}\n",
  "sourcePath": "/Users/yasuradissanayake/Documents/dev/block-chain/agrifood/block_chain/contracts/FoodSupplyChain.sol",
  "compiler": {
    "name": "solc",
    "version": "0.8.13+commit.abaa5c0e.Emscripten.clang"
  },
  "schemaVersion": "3.4.16",
  "updatedAt": "2024-02-14T15:28:04.665Z",
  "devdoc": {
    "kind": "dev",
    "methods": {},
    "version": 1
  },
  "userdoc": {
    "kind": "user",
    "methods": {},
    "version": 1
  }
}